{
  "_format": "hh-sol-artifact-1",
  "contractName": "CoffeeDapp",
  "sourceName": "contracts/CoffeeDapp.sol",
  "abi": [
    {
      "inputs": [],
      "stateMutability": "nonpayable",
      "type": "constructor"
    },
    {
      "inputs": [
        {
          "internalType": "string",
          "name": "_message",
          "type": "string"
        }
      ],
      "name": "buyCoffee",
      "outputs": [],
      "stateMutability": "payable",
      "type": "function"
    },
    {
      "inputs": [],
      "name": "getOrderList",
      "outputs": [
        {
          "components": [
            {
              "internalType": "address",
              "name": "orderAddress",
              "type": "address"
            },
            {
              "internalType": "uint256",
              "name": "timestamp",
              "type": "uint256"
            },
            {
              "internalType": "string",
              "name": "message",
              "type": "string"
            },
            {
              "internalType": "uint256",
              "name": "orderId",
              "type": "uint256"
            }
          ],
          "internalType": "struct CoffeeDapp.order[]",
          "name": "",
          "type": "tuple[]"
        }
      ],
      "stateMutability": "view",
      "type": "function"
    },
    {
      "inputs": [
        {
          "internalType": "uint256",
          "name": "",
          "type": "uint256"
        }
      ],
      "name": "orderList",
      "outputs": [
        {
          "internalType": "address",
          "name": "orderAddress",
          "type": "address"
        },
        {
          "internalType": "uint256",
          "name": "timestamp",
          "type": "uint256"
        },
        {
          "internalType": "string",
          "name": "message",
          "type": "string"
        },
        {
          "internalType": "uint256",
          "name": "orderId",
          "type": "uint256"
        }
      ],
      "stateMutability": "view",
      "type": "function"
    }
  ],
  "bytecode": "0x608060405234801561001057600080fd5b5033600160006101000a81548173ffffffffffffffffffffffffffffffffffffffff021916908373ffffffffffffffffffffffffffffffffffffffff160217905550610d04806100616000396000f3fe6080604052600436106100345760003560e01c8063163dd8bb146100395780632b371b541461006457806376f75e7f14610080575b600080fd5b34801561004557600080fd5b5061004e6100c0565b60405161005b919061064c565b60405180910390f35b61007e600480360381019061007991906107b7565b61021b565b005b34801561008c57600080fd5b506100a760048036038101906100a2919061082c565b610355565b6040516100b794939291906108c1565b60405180910390f35b60606002805480602002602001604051908101604052809291908181526020016000905b8282101561021257838290600052602060002090600402016040518060800160405290816000820160009054906101000a900473ffffffffffffffffffffffffffffffffffffffff1673ffffffffffffffffffffffffffffffffffffffff1673ffffffffffffffffffffffffffffffffffffffff168152602001600182015481526020016002820180546101779061093c565b80601f01602080910402602001604051908101604052809291908181526020018280546101a39061093c565b80156101f05780601f106101c5576101008083540402835291602001916101f0565b820191906000526020600020905b8154815290600101906020018083116101d357829003601f168201915b50505050508152602001600382015481525050815260200190600101906100e4565b50505050905090565b6000341161025e576040517f08c379a0000000000000000000000000000000000000000000000000000000008152600401610255906109b9565b60405180910390fd5b60008081548092919061027090610a08565b9190505550600060405180608001604052803373ffffffffffffffffffffffffffffffffffffffff1681526020014281526020018381526020016000548152509050600281908060018154018082558091505060019003906000526020600020906004020160009091909190915060008201518160000160006101000a81548173ffffffffffffffffffffffffffffffffffffffff021916908373ffffffffffffffffffffffffffffffffffffffff1602179055506020820151816001015560408201518160020190816103449190610bfc565b506060820151816003015550505050565b6002818154811061036557600080fd5b90600052602060002090600402016000915090508060000160009054906101000a900473ffffffffffffffffffffffffffffffffffffffff16908060010154908060020180546103b49061093c565b80601f01602080910402602001604051908101604052809291908181526020018280546103e09061093c565b801561042d5780601f106104025761010080835404028352916020019161042d565b820191906000526020600020905b81548152906001019060200180831161041057829003601f168201915b5050505050908060030154905084565b600081519050919050565b600082825260208201905092915050565b6000819050602082019050919050565b600073ffffffffffffffffffffffffffffffffffffffff82169050919050565b600061049482610469565b9050919050565b6104a481610489565b82525050565b6000819050919050565b6104bd816104aa565b82525050565b600081519050919050565b600082825260208201905092915050565b60005b838110156104fd5780820151818401526020810190506104e2565b60008484015250505050565b6000601f19601f8301169050919050565b6000610525826104c3565b61052f81856104ce565b935061053f8185602086016104df565b61054881610509565b840191505092915050565b600060808301600083015161056b600086018261049b565b50602083015161057e60208601826104b4565b5060408301518482036040860152610596828261051a565b91505060608301516105ab60608601826104b4565b508091505092915050565b60006105c28383610553565b905092915050565b6000602082019050919050565b60006105e28261043d565b6105ec8185610448565b9350836020820285016105fe85610459565b8060005b8581101561063a578484038952815161061b85826105b6565b9450610626836105ca565b925060208a01995050600181019050610602565b50829750879550505050505092915050565b6000602082019050818103600083015261066681846105d7565b905092915050565b6000604051905090565b600080fd5b600080fd5b600080fd5b600080fd5b7f4e487b7100000000000000000000000000000000000000000000000000000000600052604160045260246000fd5b6106c482610509565b810181811067ffffffffffffffff821117156106e3576106e261068c565b5b80604052505050565b60006106f661066e565b905061070282826106bb565b919050565b600067ffffffffffffffff8211156107225761072161068c565b5b61072b82610509565b9050602081019050919050565b82818337600083830152505050565b600061075a61075584610707565b6106ec565b90508281526020810184848401111561077657610775610687565b5b610781848285610738565b509392505050565b600082601f83011261079e5761079d610682565b5b81356107ae848260208601610747565b91505092915050565b6000602082840312156107cd576107cc610678565b5b600082013567ffffffffffffffff8111156107eb576107ea61067d565b5b6107f784828501610789565b91505092915050565b610809816104aa565b811461081457600080fd5b50565b60008135905061082681610800565b92915050565b60006020828403121561084257610841610678565b5b600061085084828501610817565b91505092915050565b61086281610489565b82525050565b610871816104aa565b82525050565b600082825260208201905092915050565b6000610893826104c3565b61089d8185610877565b93506108ad8185602086016104df565b6108b681610509565b840191505092915050565b60006080820190506108d66000830187610859565b6108e36020830186610868565b81810360408301526108f58185610888565b90506109046060830184610868565b95945050505050565b7f4e487b7100000000000000000000000000000000000000000000000000000000600052602260045260246000fd5b6000600282049050600182168061095457607f821691505b6020821081036109675761096661090d565b5b50919050565b7f7061792067726561746572207468616e207a65726f0000000000000000000000600082015250565b60006109a3601583610877565b91506109ae8261096d565b602082019050919050565b600060208201905081810360008301526109d281610996565b9050919050565b7f4e487b7100000000000000000000000000000000000000000000000000000000600052601160045260246000fd5b6000610a13826104aa565b91507fffffffffffffffffffffffffffffffffffffffffffffffffffffffffffffffff8203610a4557610a446109d9565b5b600182019050919050565b60008190508160005260206000209050919050565b60006020601f8301049050919050565b600082821b905092915050565b600060088302610ab27fffffffffffffffffffffffffffffffffffffffffffffffffffffffffffffffff82610a75565b610abc8683610a75565b95508019841693508086168417925050509392505050565b6000819050919050565b6000610af9610af4610aef846104aa565b610ad4565b6104aa565b9050919050565b6000819050919050565b610b1383610ade565b610b27610b1f82610b00565b848454610a82565b825550505050565b600090565b610b3c610b2f565b610b47818484610b0a565b505050565b5b81811015610b6b57610b60600082610b34565b600181019050610b4d565b5050565b601f821115610bb057610b8181610a50565b610b8a84610a65565b81016020851015610b99578190505b610bad610ba585610a65565b830182610b4c565b50505b505050565b600082821c905092915050565b6000610bd360001984600802610bb5565b1980831691505092915050565b6000610bec8383610bc2565b9150826002028217905092915050565b610c05826104c3565b67ffffffffffffffff811115610c1e57610c1d61068c565b5b610c28825461093c565b610c33828285610b6f565b600060209050601f831160018114610c665760008415610c54578287015190505b610c5e8582610be0565b865550610cc6565b601f198416610c7486610a50565b60005b82811015610c9c57848901518255600182019150602085019450602081019050610c77565b86831015610cb95784890151610cb5601f891682610bc2565b8355505b6001600288020188555050505b50505050505056fea2646970667358221220905ccf55a62cd9c6986b0cca7c57433d205d8b76e941ffd6355ecdc80ac014bd64736f6c63430008120033",
  "linkReferences": {},
  "deployedLinkReferences": {}
}